:020000040800F2
:1000000000300020495700087D5700087D57000840
:100010007D5700087D5700087D570008000000004C
:100020000000000000000000000000000D56000865
:100030007D57000800000000B35600081357000861
:100040007D5700087D5700087D5700087D57000840
:100050007D5700087D5700087D5700087D57000830
:100060007D5700087D5700087D5700087D57000820
:100070007D5700087D5700087D5700087D57000810
:100080007D5700087D5700087D570008B5240008FB
:10009000B92400087D570008B52300087D570008E3
:1000A0007D5700087D5700087D5700087D570008E0
:1000B0007D5700087D570008000000007D570008AC
:1000C0007D57000800000000000000007D57000878
:1000D000000000007D5700087D5700087D5700088C
:1000E0007D5700087D570008000000000000000058
:1000F0000000000000000000000000000000000000
:1001000000000000000000000000000000000000EF
:1001100000000000000000007D5700087D57000827
:1001200000000000000000000000000000000000CF
:1001300000000000000000000000000000000000BF
:100140007D5700087D5700080000000000000000F7
:10015000000000000000000000000000000000009F
:10016000000000000000000000000000000000008F
:10017000000000000000000000000000000000007F
:10018000000000007D57000810B5054C237833B9F6
:10019000044B13B10448AFF300800123237010BD5A
:1001A0009003002000000000D89100080C4B43B1E0
:1001B0000C480D4910B5AFF300800C48036823B913
:1001C00010BD0A48036833B97047094B002BF7D0BC
:1001D000BDE810401847064B002BF5D0184700BF6C
:1001E00000000000D8910008940300208C03002038
:1001F00000000000034610B107C983E807007047FC
:10020000704742688168036812F0010F4FEA62028A
:100210001CBF8858C3588818184738B50546283079
:1002200004F088FF044605F1780004F083FF40EAFB
:10023000440010F0FF0008D0012806D0032819D090
:10024000022819D10323184600E0034695F824201C
:1002500085F824000133D5ED087A95ED047A03F092
:1002600003039A420CBF77EE877A77EEC77AC5ED23
:10027000087A38BD0223E6E70423E4E738B50446EC
:100280000D4600F001FB2946204602F095FBBDE833
:10029000384000F00FBB0000D0B5037B2DED048B80
:1002A000044609EE101A002B6BD0D0ED087AD0ED81
:1002B000078A084678EEE78A05F0C6FB3AA3D3E939
:1002C000002305F0A5FEDFED367A002818BFB0EE5A
:1002D000679A29EE288A18EE900A84ED068A05F0BE
:1002E000B3FB00222F4B05F003FC064619EE100A63
:1002F0000F4605F0A9FB02460B463046394605F08D
:1003000021FD064660690F4605F09EFB0022254B45
:1003100005F0EEFB0B4602463946304605F036FA4C
:1003200005F0A0FED4ED017AD4ED006A606168EEBC
:10033000277A07EE100AE8EEA67AD4F8E030D4ED7A
:10034000026AE7EE267A04F1C800B7EE007AF4EE0E
:10035000C77AF1EE10FA17DCFFEE006AF4EEE67AE7
:10036000F1EE10FA13D4F5EEC07AF1EE10FA10DDCA
:10037000D4F8E82077EE677A136017EE901AFFF74B
:100380007DFFBDEC048BD0BDF0EE477AF0E7F0EED8
:10039000667AD4F8EC201360EFE700BFAFF300807B
:1003A000CDCCCC3D0000E03F9A9999999999B93FFD
:1003B00001230373704710B504460021C830FFF7CE
:1003C0005DFFD4F8EC30D4F8E0201A6000232373EA
:1003D00010BDC36810B504460BB19B689847204612
:1003E00010BD00002DE9FF470446002500F1280755
:1003F000894605601946456085604561856104F15F
:1004000078063846924604F1C80804F0B9FEBDF9F2
:100410003010304604F0B4FE00F036FA494640464B
:1004200004F1E00902F0E2FB00F044FA1C22002192
:10043000484606F0AAF85146484600F084F900F014
:1004400023FA3A49404602F057FC00F033FA2946B5
:100450004046FFF713FF364B2361D4F8EC30D4F855
:10046000E0201A60384604F065FE0546304604F088
:1004700061FE40EA4500C0B284F8240094F82420CC
:1004800002F0FF036AB194F82430DBB2012B08D0EC
:1004900094F82430032B46D094F82430022B02D158
:1004A000032384F82430DFF89090224DCDF800909B
:1004B0004FF0000869463846CDF804800294039551
:1004C00004F0A8FE6846FFF784FF69463846CDF879
:1004D0000090CDF804800294039504F0C1FE6846B4
:1004E000FFF777FF69463046CDF80090CDF80480DD
:1004F0000294039504F08EFE6846FFF76AFF694692
:100500003046CDF80090CDF804800294039504F0B5
:10051000A7FE6846FFF75DFF2046FFF74CFF204629
:1005200004B0BDE8F0870223BBE700BF17B7D1389E
:10053000A6922B3BF48900081B0200082DE9F0432A
:10054000C9B04FF0FF3302AF00931A46194607F1C6
:100550001C00FFF747FF07F10C0004F08FFD07F1C7
:100560000C0004F041FD4B4D4B4E4FF000081024A1
:10057000284604F0ABFD022835D0032833D00128EB
:100580001BD10023122C3B607B603B8127D0132CB6
:1005900027D0112C14BFF86BF86905F055FA024604
:1005A0000B463846314606F07FFA384606F0EBFA3D
:1005B0003946421C284604F093FDB8F1000F17D1CC
:1005C00007F10C0004F03CFD814607F10C0004F03B
:1005D00047FD494607F11C00FFF75EFEC8E7386A91
:1005E000DBE7786AD9E70A223946284604F070FD2D
:1005F000384606F0C8FA3A78073020F00700E84697
:10060000042AADEB000D02AB30D008D8022A19D075
:1006100022D8012A0CD0C5464FF00108D0E7FE2AA7
:100620002ED032D8A2F11003032B98BF1446F2E764
:100630001846791C06F09FFA05F064FD05F012FDDE
:10064000B863E8E71846791C06F095FA05F05AFDFC
:1006500005F008FDF861DEE71846791C06F08BFA14
:1006600005F050FD05F0FEFC3862D4E71846791C11
:1006700006F081FA05F046FD05F0F4FC7862CAE761
:1006800007F11C00FFF794FEC5E707F11C00FFF718
:1006900092FEC0E7AC030020008A00084FF0FF3252
:1006A0001146014804F0F8BCAC0300200748084A92
:1006B00008B5121A002105F068FF04F019FF05F0D3
:1006C000B9FE04F01CFF04F057FF00BF90030020A8
:1006D000E41B002070B50E460446154601F010FEDE
:1006E000013609D02046002101F030FE294620467F
:1006F000BDE8704001F026BE70BD38B504460D4619
:1007000003685AB1826813602046012101F01EFE81
:1007100029462046BDE8384001F014BEC268F2E721
:100720000022FFF7D7BF70B50E460446154601F00C
:10073000E7FD013606D02A4620460021BDE870407C
:10074000FFF7DBBF70BD0022FFF7EDBF0048704729
:10075000048A0008014800F003B800BF048A0008BA
:10076000036870B5DB680446984763685A68236875
:100770001AB99B68BDE8704018475B6815689847D0
:100780006368281A00285A6807DC916859601B685A
:10079000002BEAD050689847E7E7236810681B6988
:1007A000BDE87040184703685B68184710B50446F9
:1007B00001300DD110BD9C4209D12046896802F05C
:1007C000C7FA20460021BDE8104002F043BB0C31BF
:1007D000B1F900305A1CEED10248BDE8104000F0DB
:1007E00087B800BF6F8A0008884208B508D0431C4C
:1007F00006D0013106D0044800F07AF84FF0FF31FE
:10080000084608BD0146FBE73E8A0008B1F9003002
:100810005A1C01D118467047834201D1486870477D
:100820000C31F3E7421C10B5044607D0FFF7EEFF8A
:10083000431C044602D1024800F05AF8204610BD7D
:100840004F8A0008B1F900305A1C01D11846704790
:10085000834201D1886870470C31F3E7421C10B520
:10086000044607D0FFF7EEFF431C044602D10248BE
:1008700000F03EF8204610BD208A0008EFF31080FB
:10088000C04300F00100704708B5FFF7F7FF72B6EC
:10089000064B1A6822B980F00100054AC0B21070F8
:1008A0001A681A6801321A6008BD00BF500400209F
:1008B0004C04002008B5074B1A6852B1FFF7DEFF61
:1008C0001A68013A1A601B681BB9034B1B7803B9FD
:1008D00062B608BD500400204C04002008B5FFF7A4
:1008E000D3FF962004F044FD962004F041FDF8E784
:1008F0000FB4012008B504F03FFE01F050BD000028
:1009000008B5024C23689847FCE700BF8C01002023
:1009100008B50B4800F09CFD0A4B18600A4800F02F
:1009200097FD0A4B18600A4800F092FD094B1860C9
:1009300005F080FD00210846BDE8084004F0DFBD59
:10094000CC8A0008EC150020C88A00085C0400204E
:10095000C48A000854040020FFF7D2BF10B5044633
:1009600000F0E4FC21460246BDE810400148FFF7D4
:10097000BFBF00BF8C8A000804F010BE0B4A0C4BAE
:100980000C4830B41A60C2F1005303F54053B3F57C
:10099000E07F194628BF4FF4E071074D074C016016
:1009A0005B1A1A442A60236030BC7047E41B0020A5
:1009B0002413002060040020640400202013002081
:1009C00000F01AFEFFF7DAFF0348002100F0C8FD2F
:1009D00000F02EFCFEE7000090010020024B4FF0DB
:1009E000FF31186800F052BD5C040020014B18680C
:1009F00000F074BD5C04002030B502788C78436848
:100A0000013AD2B213B19D78A54207D2022A4B60B7
:100A1000416006D803B19960886030BD18465B68B4
:100A2000F0E700238B6030BD02784368013A5968D3
:100A30004160022A4FF0000205D809B188605A606F
:100A40009A60184670475A60FBE70000034B5A68EB
:100A50004260002282605860704700BFE01A0020A8
:100A6000104BDA6810B58AB19A8ADC688A420CD3D6
:100A7000C460D860C468036104B12061521A92B2A4
:100A80008282998A8A1A9A8210BD3CB900248A1AF5
:100A9000C460D86003619A82848210BDA38A1A441C
:100AA0002346E2E7F81A00202DE9F041174DEB68E4
:100AB00053B1AB8A164FDFF85C80013BAB82002656
:100AC000AA8A0AB9EC680CB9BDE8F081A36833B111
:100AD00061685960616809B18B606260A6602146F7
:100AE0003846FFF789FFA38AAB826378042B01BFE6
:100AF000D8F80030E28A9B18A38201236370E36870
:100B0000EB600BB11D61E6602661D9E7F81A0020A1
:100B1000E01A0020741B002083682BB142685A60E1
:100B200042685AB193607047054B5A68904202D1AF
:100B300042685A6070471346002AF6D1704700BFDA
:100B4000E01A002010B5846801462CB94378012BC7
:100B50000DD1074C03E0A4682378002BFBD0084696
:100B6000FFF7DAFF2046BDE81040FFF745BF10BD94
:100B7000E01A0020036910B563B1C268DA60C26888
:100B80004AB1998A848A2144998213610023C360FF
:100B90000023036110BD9A82FAE7000070B4114B84
:100BA000DD78EFF31086EFF3108272B69A789542F3
:100BB00011D901329A701A78541CA54208BF00243A
:100BC0001C7006B962B6954207D903EBC20370BC2C
:100BD000586099607047002EF4D0022070BCFFF777
:100BE000BDBE00BF64150020836A9B0804BF224B72
:100BF0001B88F0B5056B08BF9B0805EB8302540703
:100C000048BF043A4FF0807602E94200A2F1400466
:100C1000A2F14406A2F10C074FF0000E46F804EFD3
:100C2000BE42FBD1C66942F8206C41631249C462DE
:100C30000968C90017D5112B15D9103B6FF00701B2
:100C40005B084B43A3F138010A444FF0CC302146F6
:100C500091420BD108331C44231F9D423CBF4FF0EF
:100C6000CC3344F8043C054B2B60F0BD41F8040C38
:100C700041F8080DECE700BFD48A0008A52E5AE21F
:100C800090F82520C36A12B1603319607047203391
:100C9000FBE710B590F82540C36A1CB1603383E8C8
:100CA000060010BD2033FAE7054B1B7823B9054B2E
:100CB0004FF080521A607047034B01221A70704740
:100CC000B80C002004ED00E0B90C002038B51A4B38
:100CD0001A4C186801234370FFF7B8FE6578A378B3
:100CE0003BB917486570FFF79FFEBDE8384000F03C
:100CF0005DBD04EBC503586802789AB9198900F004
:100D0000BBF9E37801359D4208BF0025EFF310835E
:100D1000EFF3108272B6A278013AA270002BDED1F6
:100D200062B6DCE7012A03D1996800F033F9E8E7FD
:100D300001F044F8E5E700BF2C1B002064150020FB
:100D4000E01A0020084B1A68084B1A6000225A600B
:100D5000072243F8042C064A136843F07F431360CC
:100D60004FF0FF30704700BFEC8A000814E000E04D
:100D700020ED00E07047000008B50B4B1868012318
:100D80004370FFF763FE00F0ADF9084A13680133C2
:100D90001360FFF789FE00F091FC0548FFF744FE61
:100DA000BDE8084000F002BD2C1B0020741B002091
:100DB000E01A0020064B1A68136BD26A934203D8DC
:100DC0001A68044B9A4202D00120FFF7C7BD704752
:100DD0002C1B0020A52E5AE2002ABBBF22F00042A5
:100DE0000732033222F00702A8BF22F0030210B537
:100DF000B4BF10230C2392B1D4188C420FD80144F5
:100E00000344544241600360826021449818814247
:100E100002D300510346F9E70020186010BD0120FD
:100E200010BDEFF3108372B6026803F001030AB13C
:100E30001168016003B962B61046704781420DD354
:100E4000436899420AD2EFF3108372B602680A60CF
:100E5000016013F0010003D162B6704701207047B2
:100E60000020704701231039037089080023437064
:100E700083704360038143818381C1817047000097
:100E800070B5858904461646002D38D043891A1D51
:100E9000013350F822200A60C2899BB29A424381F2
:100EA00004BF002343814368F3B14378022B1BD175
:100EB000FFF7BAFD00210546FFF7E2FE2389E96945
:100EC0001A1D013344F82210E2899BB29A42238111
:100ED00008BF0023284608BF2381FFF74BFE2846A2
:100EE00000F07EFC002070BDEFF31080EFF3108364
:100EF00072B6013DA5810028F4D162B670BD4AB139
:100F00004268094B42B11968FFF776FD0821304667
:100F100000F08AFC012070BD1B6843605A60986035
:100F200001234370F2E700BF2C1B0020C289808997
:100F3000101A704708B5FFF731FEBDE80840FFF70B
:100F4000B3BE838910B504460BB34389043350F80C
:100F500023300B604378022B04D10021FFF71EFEE3
:100F6000FFF7A2FEEFF31083EFF3108272B6A289AF
:100F7000013AA28103B962B66389E28901339BB267
:100F80009A42638101D100236381042010BD184679
:100F900010BD0000436870B504460E46002B4BD0D0
:100FA0004578022D20D0032D0AD0012D61D1FFF705
:100FB0003BFD044632461021FFF76BFE65700EE0E4
:100FC0000846FFF72EFF0546002852D02046FFF7BF
:100FD0002BFD29460446FFF753FE0123637020468C
:100FE000FFF7C8FD214622E0FFF71EFD0021054660
:100FF000FFF746FE2389E9691A1D44F82210EFF332
:101000001082EFF3108172B6A1890131A18102B97A
:1010100062B6E28901339BB29A42238104BF002366
:10102000238101236B702846FFF7A4FD2946114850
:10103000BDE87040FFF7E0BC8089E189884213D2A7
:1010400023891A1D44F82260EFF31082EFF3108514
:1010500072B60130A08102B962B601339BB29942E7
:1010600008BF0023238170BD0320BDE87040FFF757
:1010700075BC70BDE01A002010B5038B427819438F
:10108000062A04460183438B15D133EA010219D1A4
:1010900021EA030121832046FFF76CFD012320464E
:1010A0006370628B0821FFF7F4FD21460648BDE816
:1010B0001040FFF7A1BC052A04D111EA030201D0B8
:1010C0004283E5E710BD00BFE01A0020034B002279
:1010D0001A60034A1268DA80704700BF181B0020AC
:1010E000D08A000808B50E4B5A680E4B1968914219
:1010F0000D4905D01A60DA880868013A02449A80DE
:1011000098880A8890420AD1002205481A60FFF7A1
:101110008BFCBDE8084001460148FFF76DBC08BDE7
:10112000E01A0020181B0020741B00200B4A1368D3
:1011300030B5002443B90360816013B19D68691A1A
:10114000996044B1206030BD9D68A942F3D31C462C
:10115000491B1B68EEE7106030BD00BF281B002054
:10116000C0B1431C11D00C4B984211D80B4B1B68DB
:101170004FF47A715A1E01FB0020B0FBF3F34FF6D7
:10118000FE70834206D898B270474FF6FF707047E2
:101190004FF6FE70704700BF00093D00888A0008C6
:1011A00038B1830704D10378002B18BF00207047A3
:1011B00000207047B0B50E4D287800AFA8B90D4C8F
:1011C000236893F8241000F051FB2368DA78FF2A93
:1011D00003D1DA6A203282F3098862680AB984E8A6
:1011E0000C0000F0FBFC01232B700020B0BD00BF01
:1011F000251B00202C1B0020014B1878704700BFD6
:10120000251B002010B5EFF3108434B9EFF30584EB
:101210001CB9EFF31484E40702D4034B187810BD13
:10122000DFF808C000DF10BD251B0020F911000801
:1012300090B589B000AFEFF31083002B37D1EFF3F7
:101240000583002B33D1FFF7DDFF28B9194C246843
:1012500014B1646804B1A047EFF3148404F00304EC
:10126000022C18D0032C1CD0012C1ED007F1200416
:1012700084F30988104C2478E40710D5022484F301
:101280001488BFF34F8FBFF36F8FDFF830C000DFDC
:101290002437BD4690BD084C2478E407F5D40324D8
:1012A000EDE7054C2478E407EFD5FF20F0E7822036
:1012B000EEE700BF141B0020B68A0008B511000835
:1012C00070B50B461646024610B90024204670BD84
:1012D00000680028F9D0B2F90440E51CADB2062D33
:1012E000F3D8D168C1B11269043444EA012100F095
:1012F000FBFA0028E9D00A4B0A4A013853F820408B
:10130000E36A5A63084B1B6843B19B6833B13146AB
:10131000E0789847E063D9E70A46E5E7E663D5E772
:1013200048150020AD140008141B002008B500F07B
:1013300095FA18B10138024B53F8200008BD00BFE0
:101340004815002010B5FFF72BFF044670B1084B7D
:101350001B681BB1DB680BB1C06B9847E07800F0ED
:1013600019FBFF280CBF8120002010BD802010BD7C
:10137000141B002008B528B1FFF7F2FE00F01AFD9B
:10138000402008BD08BD000010B5EFF3108434B94B
:10139000EFF305841CB9DFF80CC000DF10BD82201C
:1013A00010BD000075130008830705D138B14369EB
:1013B00001691B681846704700231946FAE703467F
:1013C000FBE7000010B504460846DFF80CC000DF5C
:1013D00084E80300204610BDA913000810B548B1E9
:1013E000046824B1237823B9204600F03DFC204650
:1013F00010BD002010BD70B510F0030405460E4668
:1014000011D180B10378032B0DD10846FFF7A8FE58
:101410000146284600F0A0FC012806D1002E14BF8A
:10142000C120812070BD802070BD204670BD820724
:1014300008B50AD148B10378032B06D100F01CFC93
:10144000FF280CBF8120002008BD802008BD0000BF
:1014500070B50546EFF3108494B9EFF305867EB9B5
:10146000EFF31484E40706D4064C24781CB9BDE8D5
:101470007040FFF7B3BF2846DFF80CC000DF70BD37
:10148000002070BD251B0020DD13000810B5EFF310
:10149000108434B9EFF305841CB9DFF80CC000DF09
:1014A00010BD822010BD0000F7130008084808B5E1
:1014B0004FF0FF310068FFF7E9FFDFF818C000DFE9
:1014C0000446FFF759FA2046DFF80CC000DFFEE7BC
:1014D000201B00202D1300084513000810B5EFF362
:1014E000108434B9EFF305841CB9DFF80CC000DFB9
:1014F00010BD822010BD00002F1400082DE9F0411E
:1015000080460F461646EFF3108404BBEFF30583C5
:10151000D3B9EFF31483DB0706D40E4B1B781BB94A
:10152000BDE8F041FFF7CCBE0B4D4FF0FF3128680E
:10153000FFF7ACFF404639463246DFF820C000DFF7
:1015400004462868FFF7CAFF2046BDE8F081002462
:10155000FAE700BF251B0020201B0020C112000855
:101560000022FFF7CBBF10B5044660B1016851B14E
:10157000406848B1037833B90431890089B2FFF774
:1015800071FC606810BD002010BD000038B5114C22
:1015900023780BB900F0A8FA0F4B25781B68FF22BF
:1015A0009A708DB929460D48FFF7DDFF0C4B2A468E
:1015B000186029460B48FFF783FE0B4B18600B4859
:1015C000FFF746FF0A4B186001232370094B0020E8
:1015D000187038BD241B00202C1B0020BC8A00087A
:1015E000E8150020D88A0008DC1A0020F08A0008DC
:1015F000201B0020251B002010B5EFF3108474B9C8
:10160000EFF305845CB9EFF31484E40703D4BDE879
:101610001040FFF7BBBFDFF80CC000DF10BD822019
:1016200010BD00008D1500082DE9FF410C468046D5
:1016300018B30378012B25D10846FFF791FD02A9C5
:1016400002464046FFF71CFC012811D10020002C67
:101650000246034618BF4020029904460D4616462E
:101660001F462046294632463B4604B0BDE8F0817D
:101670000020024603461020EEE780240546064679
:101680000746EEE7002580242E462F46E9E770B591
:101690000E461446054660B15AB90378012B08D1AD
:1016A000FFF744FC38B128463146FFF743FC20469B
:1016B00070BD802070BD812070BD0000F8B5114E56
:1016C00034682CB1A368104F013BA360A26802B13B
:1016D000F8BD2568386835602146FFF7D8FF10B19E
:1016E0000420FFF73BF96379012B07D1E16820461D
:1016F000FFF71CFD002DEBD02C46E7E701232371FB
:10170000F8E700BF281B0020E81500207FB504463D
:101710001646084601B122B180232360204604B05A
:1017200070BD0B78012BF7D102A9FFF70AFC042842
:1017300008BF102301AD14BF0196019395E807007F
:1017400084E80700EAE7000038B504461546EFF3E1
:10175000108010B9EFF3058028B12A462046FFF724
:10176000D5FF204638BD08461146DFF80CC000DF23
:1017700084E80700F5E70000291600087FB50A4C49
:1017800021684FF0FF3203A8FFF7DEFF039B102B09
:10179000F6D1049901A8FFF715FE019B002BEFD0AD
:1017A00002989847ECE700BFE8150020054B586009
:1017B00002234370044B1B681BB11B690BB1C06B48
:1017C000184770472C1B0020141B002008B5034845
:1017D000FFF72AF9BDE80840FFF7E8BFE01A00204C
:1017E00070B5044618B9BDE87040FFF7EFBF0C4E66
:1017F000A278306883789A424FF0010508D9FFF744
:1018000025F933685D702046BDE87040FFF7CEBF14
:10181000657021460348BDE87040FFF7EDB800BF92
:101820002C1B0020E01A002038B50D46014680B17F
:101830004FF6FF739842074C02D02068FFF710F96B
:10184000236805485D70FFF7EFF8BDE83840FFF703
:10185000ADBF38BD2C1B0020E01A0020024B1868D9
:1018600000B1C078704700BF2C1B002010B5A8B98C
:10187000194B1B68997083F82410184843689B78AB
:101880008B4201D8002010BD134C2168FFF7B4F83B
:10189000236801225A70FFF799FFF3E7104B1B886A
:1018A000984217D801380F4B53F8204094B10A4B97
:1018B000A1701B6884F824109C42DED02046FFF7FC
:1018C00041F96378012BDDD10448FFF7ADF8FFF74C
:1018D00087FFD7E7FF2010BD2C1B0020E01A002057
:1018E000B88A0008481500202DE9F04711F0FF0FD5
:1018F0000D468046234816469A4608BF0135FFF735
:1019000090FA044620B94FF000094846BDE8F08738
:101910001D4B06631B881D4E280AA06200218B42C6
:1019200001F10109EFD006EB89020F4652F8042CB1
:101930004946002AF3D1EDB2012384F80390C4F89C
:101940001CA0C4F838A022706370A57084F82450DD
:101950006260A260E26022612262A282E28222834D
:10196000628384F8252018B90948FFF75AFA2063E2
:1019700020464146FFF738F9204646F82740FFF752
:101980002FFFC2E710190020B88A00084815002070
:10199000381300202DE9F84F4D4D18B12B68DB7836
:1019A000984241D12C68DFF83C810023637003F03A
:1019B00002FEE062FFF7FEF92B681C6A0127A4B95A
:1019C0002A684449D3784448013B41F82340116BCD
:1019D000FFF734FA296841480C63FFF72FFA2C60AF
:1019E000FFF7F4FE2046BDE8F88F6368B3B12046E8
:1019F000FFF71AF800210646FFF742F93046FFF7D5
:101A0000B9F8777031464046FEF7F6FFE368326A70
:101A10006780A660E26034621C46D0E7E2686380BB
:101A2000A360E3601446CAE72D4B1B8898424DD84B
:101A3000284B471E994653F82760002E46D0304663
:101A4000FFF76AF83046FFF795F8DFF898B0346A88
:101A50004FF0010AB4B9316B1F4849F82740FFF72E
:101A6000EDF9314634631D48FFF7E8F91D48296850
:101A700043689A788B789A42B4D901234B70FEF769
:101A8000BBFFADE76368DBB12046FEF7CDFF002169
:101A90008046FFF7F5F84046FFF76CF888F801A09C
:101AA00041465846FEF7A8FFE368D8F82020A4F87E
:101AB00002A0C4F80880E260C8F820401C46C9E7CC
:101AC000E2686380A360E3601446C3E7FF2489E70C
:101AD0002C1B00204815002038130020101900206E
:101AE000B88A0008E01A002038B52C4B2C491A8817
:101AF0000023184693424DD32A4B2B4819882B4C70
:101B00004022FFF769F92A4B2A481A882A4B42F0EB
:101B100000421968FFF760F9284B1988284B082202
:101B20001868FFF759F9FF230025E3702148A562E3
:101B3000012363702570A57084F824506560A5604A
:101B4000E56025612562A582E5822583658384F8A9
:101B50002550FFF766F91B4920632046FFF744F83C
:101B6000194B04221A705D60184B1A70DD601D61FC
:101B70009D82174B20461C6002236370FFF716FE00
:101B8000144A154B12781D705D70DA70BDE838404C
:101B9000FFF79CBA41F823000133ABE7B88A00088D
:101BA00048150020848A000810190020341B0020EA
:101BB000D48A000838130020808A0008868A00082A
:101BC0005804002059090008E01A0020F81A0020E3
:101BD0002C1B0020B58A00086415002008B51E4B98
:101BE0001A6842F47F021A601B681B0203F07F43ED
:101BF000DB43B3FA83F3194A194812680168DBB270
:101C0000C3F10803C2F30222934298BF531C6FF042
:101C1000807202FA03F303F07F4321F07F42134303
:101C20000360FFF78FF80F4B0028186012DB00F1FC
:101C3000604000F56440FF2202701A6853099B005F
:101C400003F1604303F5614302F01F02012101FA31
:101C500002F21A6008BD00BF20ED00E00CED00E0CC
:101C60001CED00E0101B00200323037000234380C1
:101C700043608360C36070472DE9F843438805469D
:101C8000002B63D0324F81683A6891425ED1013BAC
:101C90009BB243801BB100242046BDE8F8830B6A49
:101CA000984229D1C3680B6291F824300C6A5CBB5E
:101CB0008B706A68DFF89C80002A3BD02846FEF7CC
:101CC000B3FE21460646FEF7DBFF3046FEF752FF25
:101CD000336AEB604FF001093968D8F80430A5F891
:101CE0000290AE6035628A789B789A4214D330466F
:101CF000FFF776FDD0E71346002BD5D0DA68954282
:101D0000F9D1EA68DA60CFE762681AB19278934253
:101D100038BF1346E468CAE74046FEF76DFE314619
:101D20004046FEF769FE3B6883F8019086F8019013
:101D30002046DDE7D8F8042092789A42ABD9404695
:101D4000FEF75AFE3B6801225A70F1E7FF24A3E731
:101D50002C1B0020E01A0020438870B504460E4674
:101D6000134D43B92A688260116AC1601062013361
:101D70006380002070BD80682A689042F7D081B1EE
:101D8000937882789A4202D28370FEF7DBFE626813
:101D90004AB129682046FEF72FFE09213046FFF799
:101DA00043FD012070BD2B6863605A609C60F4E7BE
:101DB0002C1B00200321FFF737BD0000426810B53F
:101DC0007AB1FEF731FE0446FEF7D4FE01216170C0
:101DD0002046FEF755FF21460448BDE81040FEF7B7
:101DE0000BBE42880132428010BD00BFE01A0020C5
:101DF00070B5134C23681A69950707D5DA68900700
:101E000004D56FF002021A61FEF7A4FC23681A6978
:101E1000510713D5DA68520710D56FF00402094E46
:101E20001A615D6A3368EB1AB3F57A7F06D302F064
:101E300081FF236805F57A729A63356070BD00BF33
:101E4000781B0020CC0C002030B589B001A903A874
:101E500002F0A2FD02F070FD244B0190DA69244CDF
:101E600042F00102DA61DA6902F001020292029A9A
:101E70001A6942F001021A611A6922F001021A611C
:101E8000069A4FF0804323604FF0FF33E360194B15
:101E90004ABBB0FBF3F001380025606014482561AF
:101EA000A560656102F0E2FD13491C2001F0E6F92E
:101EB000124B0F484FF080521A60294602F024FF5F
:101EC00004210B4802F020FF23680D4A596A116073
:101ED000126802F57A729A63DA68284642F00402C0
:101EE000DA6009B030BD4000D3E700BF0010024007
:101EF000781B002040420F00F11D000800E100E0C7
:101F0000CC0C00204FF08043034A1360DA6822F0C3
:101F10000402DA60704700BF781B00204FF0804356
:101F2000034A1360DA6842F00402DA60704700BFC7
:101F3000781B0020F8B54C26134B4643341D0F4642
:101F40001C4400251E44BD4200D1F8BD0121336868
:101F500001FA05F21A4213D00C4A236B506901FAB8
:101F600003F303420CD0D4F818E05361206838B171
:101F7000DEF810201342064B08BF02211B68984769
:101F800001350434DFE700BFD00C0020000401401D
:101F9000E40E002001210020FFF7CCBF01210846FC
:101FA000FFF7C8BF01210220FFF7C4BF01210320B2
:101FB000FFF7C0BF01210420FFF7BCBF0521084681
:101FC000FFF7B8BF06210846FFF7B4BF012910B5D7
:101FD00010D1144C838932B1A26803F00F039940E9
:101FE0001143A16010BDA26803F00F03994022EADB
:101FF0000101F6E702290AD10A49838942B1C8687A
:1020000003F00F03012202FA03F30343CB6010BD78
:10201000CA6803F00F03012000FA03F322EA030366
:10202000F4E700BF00040140B0F90C309AB202F0AE
:102030000F0170B501F00C0404F1804404F5803404
:1020400002F00302A56892000F269640C3F3031323
:10205000934025EA0605094A2B43A360146801232F
:1020600003FA01F12143116090F90020510902F0B7
:102070001F029340024A42F8213070BD0004014023
:1020800000E100E02DE9F04F9B464B1C85B0074670
:102090000C46924662D0324B9A6942F001029A6134
:1020A0009B69304A03F001030393039B01F00F087F
:1020B0000C2303FB0823C1F303105D68062D45D8EC
:1020C000DFE805F004383A3C3E404200264E0192DB
:1020D00000F0B4F80C21019ABC8101FB08F15318FF
:1020E00052F801E0214993F908C087F800C04C225A
:1020F0006A4301248B587D6004FA0EF41C434FF0B0
:102100000009C7F808908C50132202FB05E501EB8B
:1021100085023146D061C2F804B0C2F83480144A56
:102120006046C2F800A001F0A9F83846FFF77CFF2E
:10213000484610E00F4ECAE70F4EC8E70F4EC6E7FD
:102140000F4EC4E70F4EC2E70F4EC0E70F48FEF731
:10215000CFFB4FF0FF3005B0BDE8F08F0846FAE73F
:1021600000100240F88B0008951F0008D00C0020DA
:10217000E40E00209D1F0008A51F0008AD1F0008E9
:10218000B51F0008BD1F0008C51F0008F48A00081D
:1021900010B58389124C0122216803F00F0302FA63
:1021A00003F321EA0303236090F900300D4C590931
:1021B000203103F01F0302FA03F344F82130BFF388
:1021C0004F8FBFF36F8F90F90030590903F01F0351
:1021D0009A4001F1600344F823200023836010BD7E
:1021E0000004014000E100E0838903F00F020C23AA
:1021F0005343104A70B54468D658FFF7C9FF4C21C5
:102200000D4A6143012000FA06F55058132303FBE1
:10221000046320EA0500505002EB83000021416076
:10222000981D0C3302EB800002EB83034160596080
:1022300070BD00BFF88B0008D00C00207FB50528CA
:1022400043D8DFE800F003121E2A4236214B5A69B8
:1022500042F400325A615B6903F400330193019B3D
:102260004FF0904007B05DF804FB1A4B1A485A69CA
:1022700042F480225A615B6903F480230293029B3B
:10228000F0E7144B15485A6942F400225A615B6921
:1022900003F400230393039BE4E70E4B10485A69B1
:1022A00042F480125A615B6903F480130493049B27
:1022B000D8E7084B0B485A6942F480025A615B69BF
:1022C00003F480030593059BCCE70748FEF710FB5A
:1022D0000020C7E700100240000400480008004842
:1022E000000C0048001400481B8B000810B50021AA
:1022F000044604F00F0400F02BFD0120A04010BDA7
:1023000070B504464B1C0E46218218D0C1F3031051
:10231000FFF794FF05463046FFF7E8FF238A084A97
:10232000656103F00F03206052F82330A36105F1CB
:102330001003636005F118032835A360E56070BDE4
:10234000688B0008B0F9100000F084BD10B58369F7
:10235000446971B9216893FAA3F2B2FA82F20320B8
:10236000520000FA02F221EA020293FAA3F3226079
:1023700010BD226893FAA3F1B1FA81F193FAA3F3A5
:102380000320490000FA01F1B3FA83F322EA0102C3
:102390005B00012101FA03F31343236010BD08B56C
:1023A000FFF7B0FD0121002000F088FFBDE80840E4
:1023B000FFF7B4BD384B5A692DE9F041374CD207CD
:1023C00023602AD59868364F9968364E9A68364DFC
:1023D0003840B84201EA060104BF01279F60B142BC
:1023E00008BF2D4B02EA050204BF4FF480769E60C1
:1023F000AA4202BF284B4FF480359D60284B98427B
:1024000005D0284B994202D0274B9A4205D1274B41
:10241000274A1B681068012198472368DA685B69BE
:10242000970707D09E0705D5204B214A1B681068E7
:1024300000219847236899695A695B698D0709D516
:10244000900507D5190405D5184B194A1B68106863
:1024500005219847226896695569526916F0040665
:1024600005F4806508D03DB1120405D50F4B104A24
:102470001B6810680721984723685B6956B14DB106
:102480001B0407D5094B0A4A1B6810680221BDE8E6
:10249000F0411847BDE8F08100640040E80E0020DC
:1024A0000300000400030008000003102C0F0020AC
:1024B000280F0020FFF77EBFFFF77CBF054B186891
:1024C00038B901221A60044B4FF080421A60FFF7BE
:1024D000BBBC7047300F0020781B002008B5044BB0
:1024E0001B680BB9FFF7EAFF4FF08043586A08BD3D
:1024F000300F00204FF08043034A13605863DA68BE
:1025000042F00202DA607047781B00204FF08043EF
:10251000034A1360DA6822F00202DA60704700BFF3
:10252000781B0020034A4FF0804313606FF00202D3
:102530001A617047781B002010B5054B1C682046B7
:1025400001F0A5F82046BDE8104001F076BC00BFC0
:10255000340F0020F8B590F95C4090F95D500646C4
:102560000F46204600F08AFE3946284600F086FED7
:1025700096F86C30002B0CBF02230123002CA8BF5F
:1025800004F160424FEA0313AFBF02F56142144AFF
:1025900004F00F00D9B2AABFD9B2115482F80013C7
:1025A000002DADBF05F1604205F00F010C4A02F5A8
:1025B0006142B5BFDBB2DBB2535482F8003361092C
:1025C0000123084A04F01F0403FA04F442F82140EE
:1025D000690905F01F0503FA05F542F82150F8BD19
:1025E00014ED00E000E100E010B590F95D4090F9D5
:1025F0005C0002F0E7FC2046BDE8104002F0E2BCBF
:1026000090F85030044A011D002B044842F8231072
:1026100018BF0020704700BF340F00203925000884
:102620000D4B02681B68416DB3FBF1F1142342604E
:102630004B439169090401D5013BFAD1074B9A42FA
:1026400009D103F5DE331A6942F400121A611A69DE
:1026500022F400121A617047A401002000540040C7
:10266000F8B52B4B0D461A68436DB2FBF3F11423FA
:102670004B4341680446061D8869000401D5013BAF
:10268000FAD1244B9A42244B32D1244A954207D0A6
:102690009D422BD0224B234A954218BF002300E0D5
:1026A000214BA3601C4B214F9D4206D12368BB42A6
:1026B00003D14FF4801001F031FC2368BB4201BF0D
:1026C0001B4A136B43F0100313630021304601F0E3
:1026D000FEFB012323610023636123626362E360E5
:1026E000A361304600F083FE6565F8BD114BD8E765
:1026F00011498A420AD1094A954203D09D4203D02A
:102700000E4BC8E70E4BCCE70E4BCAE70023C8E7D9
:10271000A40100200090D00340420F00801A060060
:10272000B47DB110A08601006321E2000054004096
:10273000001002401E0DA00000A24A04CB8DD21052
:102740007125F300240DC000F7B50E4604462B4951
:1027500030461546FEF766F8294907462846FEF733
:1027600061F8A4F858600146A4F85A503846FEF7BC
:102770003BF8244B2060984225D1002384F8503048
:1027800003F1804303F504331C49DA6942F4001273
:10279000DA61DB6903F4001301933046019BFEF715
:1027A00005F817492846FEF701F80321304600F0E6
:1027B00051FB0321284600F04DFB1F2384F85C30B9
:1027C000202384F85D30636D0BB90F4B63652046A1
:1027D000FFF726FF616D2046FFF742FF00234FF011
:1027E000007284F86D3084F86C3084F86E302266A4
:1027F00084F86430A36603B0F0BD00BFDC8C000831
:10280000B88C000800540040A0860100836F07B513
:10281000BBB1D0F88830A3B190F8702072B14FF0FE
:102820000072C265C26DB0F86C1000929BB2D0F815
:10283000842000F02DFE03B05DF804FB4FF08072A1
:10284000EFE7082380F86030F5E7082380F8603070
:10285000704738B5051D0446C260284600F0C7FD24
:102860002046FFF7CDFE01462046FFF773FE2846BF
:10287000BDE8384000F0DCBE70B590F86850044602
:10288000061F05B18568B4F95620B4F954103046D6
:10289000FFF75AFF45B1012384F8683000232A4628
:1028A00019463046FFF7D5FF022384F8603070BD2B
:1028B0000346043021B1012283F86C2000F0B8BE39
:1028C00083F86C1000F0C8BE012902D180F86910AD
:1028D000704711B9012380F86A307047002380F8EF
:1028E00069307047002380F86A30704700F0A0BE5E
:1028F00090F86E3090F86D20002B0CBF002303235E
:10290000002A0CBF184601207047000070B54FF038
:10291000807306461546043092B200F041FE10B1B5
:102920000025284670BD0A4B1C68736DB4FBF3F399
:102930001E2405FB04445C4396F86E302BB1013C29
:10294000EED0012002F0FCFCF6E7002CE9D1E7E72D
:10295000A401002070B54FF0807306461546043080
:1029600092B200F0D5FD10B10025284670BD0A4B8B
:102970001C68736DB4FBF3F31E2405FB04445C4335
:1029800096F86D302BB1013CEED0012002F0D8FC5E
:10299000F6E7002CE9D1E7E7A401002010B50446D2
:1029A00050F80429136823F0FE031360FFF71CFEA0
:1029B000022384F8603010BD30B507EE101A284BA2
:1029C00002681A60B5EEC07AF1EE10FA89B00546D9
:1029D00028D4F7EE007AB4EE677AF1EE10FAC8BFA9
:1029E000B0EE677AD5ED037AF8EE677A602267EE8B
:1029F000877A0192FCEEE77AAA68C5ED047A17EEB1
:102A0000903AB3FBF2F302930023039305930693EA
:102A1000049307932B7D013B032B16D8DFE803F0CB
:102A20001B0517199FED0F7ADCE70424224601A944
:102A30000B4802F00AFA10B10B48FDF759FF6B7D05
:102A4000074821464BB102F0EFF909B030BD082428
:102A5000ECE70C24EAE70024E8E702F033F9F4E7B6
:102A6000480F002000000000518B0008C368ABB184
:102A700007EE903AD0ED046AB8EE677AF8EE666A2F
:102A8000C6EE877AB7EE007AF4EE477AF1EE10FAE6
:102A9000C8BFF0EE477A17EE900A7047DFED017A73
:102AA000F9E700BF000000002DE9F0474A4C02683A
:102AB000226086B000230E4600930546FFF7D6FF3E
:102AC000116A41F211131942074608D1116A40F206
:102AD0004443194202BF136823F00103136069469F
:102AE00001A801F059FF3D482968002380465FFA9C
:102AF00083F9013350F839208A42F8D111B93848A6
:102B0000FDF7F6FE08EBC90898F8043053BB01F056
:102B100013FF0090049800990123AB60314B30BB48
:102B2000B1FBF3F3013B636006F1FF3C2D4B6268A0
:102B3000B1FBF3FE4FEA41080021B8FBF3F8C4F8FB
:102B40000CC063468A464FF6FE79B3F5803F12D239
:102B5000B2F5803F0FD2BAF1000F00D06260F1B140
:102B6000E3601CE001F000FF00900598D3E74A0005
:102B7000B2FBF3F3D6E7AB685B00AB6030BB0EFB98
:102B800003F2BCFBF3F34B4502F1FF3221D8B2F55F
:102B9000803F1ED314486260E360FDF7A9FE002366
:102BA0000D482361A36001F07BFF10B10E48FDF7D3
:102BB0009FFEEE6039462846FFF7FEFE2268136846
:102BC00043F00103136006B0BDE8F08708FB03F291
:102BD000D7E701218A46B8E7480F0020A88B0008F4
:102BE0003C8B000840420F00518B000830B50D4669
:102BF000044687B039492846FDF714FE374920605E
:102C00002846FDF72BFEC0F304332375344A2368AE
:102C1000C0F340409342607518D102F56442916957
:102C200041F400619161926902F400620092009A9D
:102C30002C4A934225D12C4B9A6942F480229A6106
:102C40009B6903F480230593059B1AE0B3F1804F41
:102C50000AD1254AD16941F00101D161D26902F05E
:102C600001020192019AE3E7204A93421AD11E4BD6
:102C7000DA6942F00202DA61DB6903F002030293CF
:102C8000029B16492846FDF791FD0023E36023616E
:102C90000123A580A36044F620612046FFF704FFCE
:102CA00007B030BD124A93420AD10F4B9A6942F4E1
:102CB00080329A619B6903F480330393039BE0E7BE
:102CC0000C4A9342B4D1084B9A6942F400329A619B
:102CD0009B6903F400330493049BD2E7008D000842
:102CE000002C014000480140001002400004004058
:102CF000004001400044014007EE101ADFED047A65
:102D000067EE277AFDEEE77A17EE901AFFF7CCBE52
:102D10000024744930B5C36891FAA1F4B4FA84F47C
:102D200091FAA1F10325B1FA81F1640005FA04F4E6
:102D3000490023EA040302FA01F11943C16030BDDE
:102D4000012A02D0022A18BF0022FFF7E3BF0000C9
:102D50002DE9F0413E4B00F00F08C0F303100E4682
:102D600001F0070553F82840FFF768FA826894FAE3
:102D7000A4F3B3FA83F394FAA4F103275B00B1FA46
:102D800081F107FA03F322EA03034A0007FA02F289
:102D90001343022D836028D0BD4241D0012D3FD086
:102DA0000023026894FAA4F7B7FA87F794FAA4F11B
:102DB0004FF0030EB1FA81F17F000EFA07F74900D8
:102DC00022EA07028B40013D1343012D036005D821
:102DD000436832074CBF2343A3434360C6F3011249
:102DE0002146BDE8F041FFF7ABBFB8F1070FC6F3CE
:102DF000032717D9426A230A93FAA3F1B1FA81F1A2
:102E000093FAA3F34FF00F0EB3FA83F389000EFA8F
:102E100001F19B0022EA010207FA03F31343436224
:102E20002B46BEE7026A94FAA4F3B3FA83F394FA4A
:102E3000A4F14FF00F0EB1FA81F19B000EFA03F3EB
:102E4000890022EA030207FA01F313430362E7E76A
:102E5000688B000800F00F021C4B70B5C0F3031024
:102E60000D4653F82240FFF7E9F9066894FAA4F1F9
:102E7000B1FA81F394FAA4F259000323B2FA82F270
:102E80008B4033405200D340013B012B05D8EB1E51
:102E9000022B436809D823434360032D08D1012244
:102EA0002146BDE87040FFF74BBF23EA04034360AF
:102EB000012DF4D0052D01D0022D01D10222EFE722
:102EC00021460022BDE87040FFF724BF688B000850
:102ED0004368184970225A4310B58B1804688C5007
:102EE00082685A60C2689A600269DA6042691A614F
:102EF000C2699A610022A3F85220A3F85020A3F8D7
:102F00005A20A3F85820B0F91A2001320AD1082219
:102F10005A61184601F077F958B10748BDE81040EA
:102F2000FDF7E6BCB0F9182001320CBF04220C22D8
:102F3000EEE710BD8C0F0020E08B0008F0B50E46C8
:102F400085B00446494930461546FDF76BFC4849B3
:102F500007462846FDF766FC01463846FDF744FC67
:102F6000444B2060984251D103F55843DA6842F44B
:102F70008042DA60DA6822F48042DA609A6942F4C8
:102F800080429A619A6902F480420192019A1A6B16
:102F900022F0030242F001021A6300236360334906
:102FA0003046FDF703FC32492846FDF7FFFB721C53
:102FB00003D001213046FFF74DFF6B1C03D00121E8
:102FC0002846FFF747FF4FF41653A3600023E36042
:102FD00023616361E361268365832046FFF778FF01
:102FE0002268254B9A420FD1244B01221A60244BB0
:102FF00004F12005206861681A4603C20834AC4217
:103000001346F7D12068106005B0F0BD1A4B984206
:1030100014D103F5E6331A6942F400321A611A69D1
:1030200022F400321A61DA6942F40032DA61DB69B3
:1030300003F400330293029B0123AFE7114B984244
:10304000ADD103F5E4331A6942F480221A611A699A
:1030500022F480221A61DA6942F48022DA61DB69A3
:1030600003F480230393039B022397E7388E000821
:10307000F08D00080038014000440040880F002017
:10308000B81B0020004800408160FFF721BF00000E
:10309000426870235343034AD358D869C0F34010A1
:1030A000704700BF8C0F002010B5446801460846E9
:1030B000FFF7EEFF0028FAD07023054AC968634382
:1030C000D358988C09B9C0B210BDC0F3080010BD28
:1030D0008C0F0020426870235343034AD358D869A9
:1030E000C0F3C010704700BF8C0F002038B5456892
:1030F00004462046FFF7EEFF0028FAD07023054A69
:10310000E0686B43D35810B9C9B2198538BDC1F313
:103110000801FAE78C0F002008B500F005F8BDE8BB
:10312000084001F0F5BD0000144A1549536803F04A
:103130000C03042B10B501D0082B0AD0114B0B60E7
:103140005368114AC3F30313D25C0B68D3400B607E
:1031500010BD53685068C00349BFD06A0B48094C82
:1031600000F00F00C3F3834348BF013003F10203B3
:1031700048BFB4FBF0F04343E1E700BF001002405A
:10318000A401002000127A00808E000800093D0092
:1031900030B591B00323069301230A931023002432
:1031A0000B9302254FF4601306A807940D950E9417
:1031B0000F9301F05BF880B90F23019303904FF454
:1031C00080630590294601A80295049301F0F2FA64
:1031D000B0FA80F0400911B030BD2046FBE708B5D9
:1031E000FFF7D6FF00B9FEE708BD00001D4AD2F880
:1031F000883010B543F470031B4CC2F88830236844
:1032000043F0010323606168184B0B40636023683F
:1032100023F0847323F480332360236823F4802312
:103220002360636823F4FE036360E36A23F00F0303
:10323000E362216B0E4B0B4023630023A3604FF02E
:10324000006393600B4B0C4A1A6001F061FDFFF7BD
:10325000C6FF236943F001032361236923F00103BF
:10326000236110BD00ED00E0001002400CC07FF8AB
:10327000CCFC00FFA401002000127A0030B50C4CF9
:10328000A268A468B4F1006F13460CD1131F094C57
:10329000094A53F8045F42F8045FA242F9D1044A94
:1032A0004FF000539360103043F8201030BD00BF42
:1032B00000ED00E084010020FCFFFF1F064A1369B7
:1032C000012923F00403136101D130BF704740BFCF
:1032D00020BF20BF704700BF00ED00E003689A697F
:1032E000910744BF00229A629A69D2075EBF9A6929
:1032F00042F001029A61704730B50568039C686826
:1033000020F07F7020F45930C1F30901234320F4E9
:103310007F70194320F0030041EA024101436960D4
:1033200030BD0000184B30B5446B9C4201F01202D6
:1033300001F0040302D0154DAC4213D1002B01F073
:1033400011010CBF0023B823112908BF43F09003DB
:10335000122A01D143F06003026811680B43136025
:10336000002030BD002B0CBF0023B823CC0748BF82
:1033700043F0F203890748BF43F0F403122A08BF61
:1033800043F02003E8E700BF753D0008313B00082B
:1033900011F0010307D090F8413003F02803282BE7
:1033A0000CBF4223F2238A0709D590F8412002F08E
:1033B0002802282A0CBF43F0440343F0F4034A07D1
:1033C00001F0110248BF43F0B80301F01201112AC5
:1033D00008BF43F09003122901680A6808BF43F050
:1033E000600322EA03030B6000207047704710B5AA
:1033F000044600284AD090F8413003F0FF021BB980
:1034000080F84020FFF7F2FF242384F8413023683E
:10341000E1681A6822F001021A60626822F07062A4
:103420001A619A68012922F400429A60A26824D1A4
:1034300042F400429A605A68616942F0007242F4B4
:1034400000425A60DA6822F40042DA6022690A43D4
:10345000A16942EA0122DA60216AE2690A431A603C
:103460001A6842F001021A6000202023606484F888
:103470004130206384F8420010BD42F40442022926
:103480009A6004BF4FF400625A60D4E7012010BD77
:1034900037B5044690F84100202834D194F8400014
:1034A000012830D0012084F84000222084F8410017
:1034B000102084F84200002060646385069B6262ED
:1034C00023F08073E362114B6363638D9BB2FF2B28
:1034D0008BBFFF23638D238523854FF410508CBF52
:1034E0004FF08073E36A94F828200090002520466E
:1034F000FFF702FF84F8405002212046FFF712FF39
:10350000284603B030BD0220FBE700BF573C00084F
:10351000F8B51F4690F8413003F02803282B0446E5
:103520000E46154636D1002934D0002A32D0052166
:10353000FFF72EFF94F84030012B2DD0012384F8A3
:10354000403094F841302A2B03D102212046FFF766
:103550001FFF292384F84130202384F84230226859
:1035600000236364516821F4004151606585618DD9
:103570002185E7620949616391696662C90344BFB5
:103580000821D161204684F840300521FFF7CAFEAA
:103590000020F8BD0120F8BD0220F8BD81390008E7
:1035A000F8B51F4690F8413003F02803282B044655
:1035B0000E46154635D1002933D0002A31D00621D8
:1035C000FFF7E6FE94F84030012B2CD094F8413000
:1035D0000121292B84F8401002D12046FFF7D8FEA4
:1035E0002A2384F84130202384F8423022680023C3
:1035F0006364516821F4004151606585618D2185C6
:10360000E7620A49616391696662C9035CBF082188
:10361000D161204684F840300621FFF783FE002068
:10362000F8BD0120F8BD0220F8BD00BF81390008B7
:1036300090F84120202A08B509D1282280F841209D
:10364000044A42630421FFF76DFE002008BD0220FA
:1036500008BD00BF8139000890F84120282A10B524
:1036600013D190F8411090F8422001F003010A4371
:1036700002630024202280F84120446380F8424005
:103680000421FFF785FE204610BD022010BD026810
:10369000436B9169126803B11847704738B500252C
:1036A00080F8425090F84130212B4FF0200304461F
:1036B00080F841300BD11123036345630121FFF7EB
:1036C00067FE84F840502046FFF7A0F838BD12236B
:1036D000036345630221FFF75BFE84F840502046F8
:1036E000FFF7B3F838BD38B5002580F8425090F8A0
:1036F0004130292B04460DD1282380F84130212365
:1037000003630121FFF744FE84F840502046FFF791
:10371000E5F838BD90F841302A2B0CD1282380F8E9
:103720004130222303630221FFF732FE84F8405028
:103730002046FFF7D7F838BD164B10B52022C362DC
:1037400000230363436380F8412080F842304B0735
:10375000044611D5436A5A1C42620268526A1A70C2
:10376000038D4BB1013B0385438D013B9BB24385E8
:10377000436C43F00403436407212046FFF708FE2F
:1037800023681022DA61002384F840302046FFF7D6
:10379000ADF810BD0000FFFF704770470023354AA9
:1037A00010B580F84230C2624385436C19434164CE
:1037B00090F84130282B044607D090F84130292B4F
:1037C00003D090F841302A2B22D103212046FFF765
:1037D000DFFD282384F8413000232363264B6363F5
:1037E000236819681A6811F480411ED022F48042BF
:1037F000A06B1A60214B4363002384F8403001F032
:10380000ABFB002834D0A06B436BBDE810401847D9
:103810000721FFF7BDFD94F84130602B1CBF20232A
:1038200084F8413000232363D9E712F400420DD01D
:103830001A68E06B22F400421A60104B436384F86C
:10384000401001F089FB98B1E06BDDE794F841305E
:10385000602B08D1202384F8413084F84020204692
:10386000FFF79CF810BD84F840202046FFF704F8CD
:1038700010BD00BF0000FFFF813900089D3E000819
:1038800038B5036820220446DA610822DA610D4661
:103890000721FFF77DFD23685A6842F400425A6011
:1038A0005A6822F0FF7222F48B3222F4FF7222F067
:1038B00001025A602046FFF711FD22681368580480
:1038C00002D41368190409D594F84130212B0CBF98
:1038D000A36BE36B1B685B689BB26385638D9BB2D4
:1038E0001BB1636C43F0040363646B0710D5636A18
:1038F000526A591C61621A70238D4BB1013B2385BA
:10390000638D013B9BB26385636C43F00403636486
:103910000023236384F842306363636C6BB1616C92
:103920002046FFF73BFF94F84130282B24D129464D
:103930002046BDE83840FFF7FFBEE26A12F5803F3F
:103940000AD00E4AE262202284F8412084F84030F6
:103950002046FEF7CBFF38BD94F8412084F8403074
:10396000222A4FF0200284F84120204602D1FEF79F
:10397000B9FF38BDFEF7B2FF38BD00BF0000FFFF42
:103980002DE9F84390F84030012B04460E461746C7
:1039900000F0CB800123CD0680F840303ED5D00624
:1039A0003CD5638D9BB28BBBE36AB3F1007F03D040
:1039B000E36AB3F1007F14D194F84130282B10D181
:1039C00031462046FFF7B8FEB20605D5BB0603D543
:1039D00031462046FFF754FF002084F84000BDE840
:1039E000F883E36A13F5803F23680CD094F84120F4
:1039F000292A08D11022DA612046FFF76FFC204601
:103A0000FFF771FEE0E71022DA61DDE7236810229C
:103A1000DA61636C43F004036364D5E771071AD578
:103A20007A0718D5638D9BB263B1636A5A1C6262D0
:103A30002268526A1A70238D013B2385638D013BF6
:103A40009BB26385638D9BB2002BBDD1E36A13F5F6
:103A5000803FD4D1B8E7330746D53D0744D594F825
:103A6000413003F02803282B236837D19A69E16895
:103A70009D6902294FEA1545C2F3004805F0FE058D
:103A80009A68D3F80C9020D1C2F3090285EAD215C6
:103A900015F006050FD1A16C0131A164A16C0229BA
:103AA00092D10821A564D96184F84050414620464E
:103AB000FEF70AFF88E704212046FFF769FC002390
:103AC00084F8403009F0FE02F0E704212046FFF7B9
:103AD0005FFC002384F840302A46E7E70822DA61D9
:103AE000002384F840306FE7B0077FF56DAFB9076A
:103AF0007FF56AAF638D9BB26BB1636A2268591C14
:103B000061621B789362638D013B9BB26385238D59
:103B1000013B238558E7E36AB3F1807F3FF46FAF41
:103B2000E36A002B3FF46BAF4EE70220BDE8F88359
:103B300090F84030012B10B504462ED0012380F8B8
:103B40004030C80619D5D30617D594F841302268FD
:103B5000212B0CBFA36BE36B1B685B68B3FA83F389
:103B600010215B09D1611BB1002084F8400010BD19
:103B7000636C43F004036364F6E7080705D5130795
:103B800003D523680822DA61EEE78806ECD59306B0
:103B9000EAD52046FFF774FEE6E7022010BD036871
:103BA000202210B5DA615A6822F0FF7222F48B32BB
:103BB00022F4FF7222F001025A6000220263426383
:103BC000A2F58032C262CA06044605D51022DA6127
:103BD000436C43F0040343642046FFF77FFB03215B
:103BE0002046FFF7D5FB636C1BB994F84120602A8F
:103BF00005D1616C2046BDE81040FFF7CFBD94F8B9
:103C00004120212A11D1202284F8412094F8422019
:103C100084F84030402A84F84230204602D1FFF731
:103C2000BBFD10BDFEF7F2FD10BD94F84120222A25
:103C300010D1202284F8412094F8422084F84030AA
:103C4000402A84F84230204602D1FFF7A6FD10BD7D
:103C5000FEF7FBFD10BD90F84030012B73B5044614
:103C60000D46164600F084800123CA0680F84030D5
:103C700017D5F30615D503681022DA61436C43F0BB
:103C800004034364FFF72AFBAA0605D5B30603D550
:103C900029462046FFF783FF002084F8400002B049
:103CA00070BD68070FD571070DD5636A5A1C626233
:103CB0002268526A1A70238D013B2385638D013B74
:103CC0009BB26385E0E7AA0708D5B30706D5636A08
:103CD0002268591C61621B789362ECE7280632D592
:103CE000710630D5208D226808BB638D9BB2F3B17D
:103CF0005168638D9BB2FF2BC1F3090108D9FF22E4
:103D0000228500904FF080732046FFF7F5FABBE75D
:103D1000628DE36A92B213F5803F2285D2B202D05F
:103D2000E36A0090F0E700904FF00073ECE753680F
:103D30009A0103D42046FFF7B1FCA5E740212046B5
:103D4000FFF72CFDA0E76B069ED570069CD5638D12
:103D50009BB2002BF2D123685A68910194D4E26A95
:103D600012F5803FE6D15A6842F480425A608BE7F0
:103D7000022094E790F84030012B13B504465AD046
:103D8000012380F84030CB0613D5D30611D5036844
:103D90001022DA61436C43F0040343641221FFF7FD
:103DA000C1FA2046FFF79AFA002084F8400002B0DA
:103DB00010BD080637D5530635D523681A6822F09A
:103DC00040021A60628D92B242B35968638D9BB211
:103DD000FF2B8BBFFF23638D238523854FF00000CE
:103DE0008CBF4FF080734FF0007394F82820009040
:103DF000C1F309012046FFF77FFA638D228D9B1ADC
:103E00009BB2638594F84130222B23681A680CBF5B
:103E100042F4004242F480421A60C5E74021204645
:103E2000FFF7BCFCC0E78806BED59306BCD520468C
:103E3000FFF7B5FEB8E70220B9E7036899691A6889
:103E400010B4CC0508D5140606D5446C44F0010422
:103E500044644FF48074DC614C0508D5140606D523
:103E6000446C44F0080444644FF48064DC618905C8
:103E700008D5120606D5426C42F0020242644FF4A5
:103E80000072DA61436C13F00B0F04D0416C5DF8E3
:103E9000044BFFF783BC5DF8044B7047406A02682F
:103EA00008B5536843F400435360826B00235363A7
:103EB000C26B536390F84130602B05D1202380F80A
:103EC0004130FEF76BFD08BDFEF7D6FC08BD90F84B
:103ED0004120D2B2202A10B51DD190F84030012BDC
:103EE00019D0242380F8413003681C6824F00104B1
:103EF0001C601C6824F480541C601C6821431960F9
:103F0000196841F001011960002380F8412080F810
:103F10004030184610BD022010BD0000084B9A69C1
:103F200042F001029A619B69064A82B003F00103E4
:103F30000193019B13681843106002B0704700BFE3
:103F400000100240000001407047000038B50446F0
:103F500005682169A368C26928680B4361690B433E
:103F60004949134301400B432B606B68E168206AA9
:103F700023F440530B436B60A968A36921F43061BB
:103F800003430B43AB60414B9D4212D103F55843B1
:103F90003F491B6B03F00303B2F5004FCB5C3BD1F1
:103FA000082B36D8DFE803F00F2124352D353535C1
:103FB0003000384B9D4203D003F580639D425ED1B3
:103FC000B2F5004F31D100F0B7FC61684A0802EB4E
:103FD0004003B3FBF1F39BB2002023F00F022168F2
:103FE000C3F342031343CB6038BD00F0BDFCECE7E4
:103FF0006068430803F5740303F51053B3FBF0F353
:10400000E9E700F0A5FBE0E76068430803F58033CB
:10401000F4E701200023E0E7082B33D8DFE803F0C2
:1040200005101B32273232322A0000F085FC63680B
:1040300000EB5300B0FBF3F080B2E860002038BD25
:1040400000F092FC636800EB5300B0FBF3F00F4B01
:1040500080B2D860F2E76268530803F5F40303F511
:104060009053B3FBF2F3094A9BB2D360E6E700F04A
:104070006FFBE7E76268530803F50043F1E7B2F529
:10408000004FC6D0012038BDF369FFEF0038014072
:10409000988E000800440040436ADA0710B506D540
:1040A0000168846A4A6822F4003222434A609C070D
:1040B00006D50168C46A4A6822F4803222434A6005
:1040C000590706D50168046B4A6822F4802222430E
:1040D0004A601A0706D50168446B4A6822F4004218
:1040E00022434A60DC0606D50168846B8A6822F4A4
:1040F000805222438A60990606D50168C46B8A689B
:1041000022F4005222438A605A060FD50168046CDB
:104110004A6822F480122243B4F5801F4A6005D118
:104120004A68446C22F4C00222434A601B0606D54A
:104130000268816C536823F400230B43536010BD65
:104140002DE9F041069D04460F4616469846216823
:10415000CA6937EA02030CBF01220022B24202D030
:104160000020BDE8F0816B1CF2D09DB923681A686D
:1041700022F4D0721A609A6822F001029A60202319
:1041800084F8693084F86A30002384F868300320AA
:10419000BDE8F08100F0D6FDA0EB08008542D6D244
:1041A000E4E773B504460026C66600F0CBFD23683D
:1041B0001B681A07054617D423681B685B070AD5D6
:1041C0006FF07E43009300222B464FF4800120467F
:1041D000FFF7B6FFA0B92023002084F8693084F8E7
:1041E000680084F86A300CE06FF07E43009332463A
:1041F00003464FF400112046FFF7A2FF0028DBD052
:10420000032002B070BD10B5044660B390F8693069
:1042100003F0FF021BB980F86820FFF795FE2268C3
:10422000242384F86930136823F0010313602046C7
:10423000FFF78CFE012816D0636A13B12046FFF702
:104240002BFF23685A6822F490425A609A6822F041
:104250002A029A601A6842F0010220461A60BDE8FC
:104260001040FFF79EBF012010BD00000368DA0771
:104270002DE9F347054611D42B689B0700F1888090
:104280002B681C0700F1F8802B68580700F141816A
:10429000EA69002A40F0D781002021E0BA4C636827
:1042A00003F00C03042B07D0636803F00C03082B06
:1042B00019D16368DF0316D54FF4003393FAA3F2E4
:1042C000216893FAA3F3B3FA83F303F01F030122E7
:1042D00002FA03F30B42CFD06B68002BCCD1012044
:1042E00002B0BDE8F0876A68B2F5803F25D1236847
:1042F00043F480332360E36AA96823F00F030B4380
:10430000E36252B300F01EFD4FF4003680460127F1
:1043100096FAA6F3226896FAA6F3B3FA83F303F0AB
:104320001F0307FA03F31342A6D100F00BFDA0EB25
:1043300008006428ECD90320D2E7236832B923F4BB
:1043400080332360236823F48023D3E7B2F5A02FC2
:10435000F5D143F480232360C9E700F0F3FC4FF468
:1043600000368046012796FAA6F3226896FAA6F34D
:10437000B3FA83F303F01F0307FA03F313423FF486
:104380007BAF00F0DFFCA0EB08006428EBD9D2E79C
:104390007D4C636813F00C0F07D0636803F00C03C7
:1043A000082B21D16368DE031ED4022393FAA3F203
:1043B000216893FAA3F3B3FA83F303F01F030122F6
:1043C00002FA03F30B4202D02B69934287D1216892
:1043D000F82393FAA3F3B3FA83F26B69934021F0C5
:1043E000F802134323604BE72A6901260AB396FAC1
:1043F000A6F3B3FA83F303F1845303F584139B000C
:1044000002271E6000F09EFC804697FAA7F3226800
:1044100097FAA7F3B3FA83F303F01F0306FA03F343
:104420001342D4D100F08EFCA0EB08000228ECD996
:1044300081E796FAA6F3B3FA83F303F1845303F505
:1044400084139B0002271A6000F07CFC804697FAD8
:10445000A7F3226897FAA7F3B3FA83F303F01F03D5
:1044600006FA03F313423FF40BAF00F06BFCA0EB32
:1044700008000228EBD95EE7AA69434E43490124AC
:104480001AB394FAA4F3B3FA83F30B449B00022704
:104490001C6000F057FC804697FAA7F397FAA7F341
:1044A00097FAA7F3726A97FAA7F3B3FA83F303F0C4
:1044B0001F0304FA03F313427FF4E6AE00F042FC5C
:1044C000A0EB08000228E7D935E794FAA4F3B3FA81
:1044D00083F30B449B0002271A6000F033FC8046F4
:1044E00097FAA7F397FAA7F397FAA7F3726A97FADE
:1044F000A7F3B3FA83F303F01F0304FA03F31342A1
:104500003FF4C2AE00F01EFCA0EB08000228E7D981
:1045100011E71D4CE369D90034D4E36943F08053BB
:10452000E361E36903F080530193019B0126184F77
:104530003B68DA052ED5EB68012B3CD1236A43F0AA
:104540000103236200F0FEFB02278246B9464FF0CA
:10455000010897FAA7F397FAA7F3002B6BD0226A0A
:1045600099FAA9F3B3FA83F303F01F0308FA03F3EC
:10457000134257D0002E3FF48BAEE36923F08053F3
:10458000E36185E60026D2E700100240208190100A
:10459000007000403B6843F480733B6000F0D2FB46
:1045A00080463B68DB05C6D400F0CCFBA0EB0800DE
:1045B0006428F6D9BFE63BBB236A23F001032362DC
:1045C000236A23F00403236200F0BCFB0227824627
:1045D000B9464FF0010897FAA7F397FAA7F373B318
:1045E000226A99FAA9F3B3FA83F303F01F0308FAD6
:1045F00003F31342BED000F0A5FB41F28833A0EBD9
:104600000A009842E7D996E6052B236A03D143F0C6
:104610000403236292E723F001032362236A23F059
:1046200004038EE700F08EFB41F28833A0EB0A0012
:1046300098428ED97FE697FAA7F3626A90E797FAD5
:10464000A7F3626ACDE7414C636803F00C03082BC3
:104650003FF445AE022A4FF0807352D193FAA3F390
:10466000B3FA83F303F1845303F584139B00002210
:104670001A6000F067FB4FF000778046012697FA3A
:10468000A7F3226897FAA7F3B3FA83F303F01F03A3
:1046900006FA03F313422DD162686B6A296A22F489
:1046A00074120B43134363604FF0807393FAA3F3C8
:1046B000B3FA83F303F1845303F584139B004FF0A3
:1046C00000751E6000F03EFB0126074695FAA5F333
:1046D000226895FAA5F3B3FA83F303F01F0306FAF1
:1046E00003F313427FF4D8AD00F02CFBC01B02286B
:1046F000ECD920E600F026FBA0EB08000228BED98A
:1047000019E693FAA3F3B3FA83F303F1845303F5A1
:1047100084139B0000221A6000F014FB4FF0007518
:104720000746012695FAA5F3226895FAA5F3B3FA90
:1047300083F303F01F0306FA03F313423FF4ACAD17
:1047400000F000FBC01B0228ECD9F4E50010024089
:1047500010B5134C616801F00C03082B1ED14FF407
:10476000701393FAA3F301F47012B3FA83F322FAED
:1047700003F30C4AD05CE36A0F2292FAA2F2B2FA77
:1047800082F203F00F03D340074AD25CCB034ABF47
:10479000064B074BB3FBF2F3584310BD034810BD63
:1047A000001002409C8E0008AC8E000800127A00B7
:1047B00000093D005C4A136803F007038B422DE9B2
:1047C000F04106460D4630D3326891073AD4D207FD
:1047D00040D4554A136803F007039D42C0F092800D
:1047E0003268524C12F0040F40F09780130706D540
:1047F0006368326923F4605343EAC2036360FFF7DE
:10480000A7FF6368F02292FAA2F2B2FA82F203F0F2
:10481000F003D340464AD35CD840464B18600F2083
:10482000FDF712FB0020BDE8F081136823F00703B9
:104830000B431360136803F007039942C4D00120AF
:10484000BDE8F0813949B0684B6823F0F0030343B9
:104850004B60BCE77268354C012A28D14FF4003315
:1048600093FAA3F1216893FAA3F3B3FA83F303F065
:104870001F0302FA03F30B42E1D0636823F0030342
:104880001A43626000F05EFA7368012B074641F23A
:1048900088381FD1636803F00C03042B99D000F013
:1048A00051FAC01B4045F5D90320BDE8F081022A2A
:1048B0000CBF4FF00073022393FAA3F1206893FA20
:1048C000A3F3B3FA83F303F01F03012101FA03F307
:1048D0000342D1E7022B10D1636803F00C03082BCD
:1048E0003FF477AF00F02EFAC01B4045F4D9DBE768
:1048F00000F028FAC01B4045D6D8636813F00C0FAF
:10490000F6D166E7136823F007032B43136013689F
:1049100003F007039D4292D162E76368F16823F4D4
:10492000E0630B43636061E7002002400010024037
:10493000808E0008A4010020084B4FF4E0625B6801
:1049400092FAA2F2B2FA82F203F4E063D340044A8C
:10495000D35C044A1068D840704700BF0010024082
:10496000908E0008A4010020084B4FF460525B6851
:1049700092FAA2F2B2FA82F203F46053D340044AEC
:10498000D35C044A1068D840704700BF0010024052
:10499000908E0008A40100200F2303600B4B5A687F
:1049A00002F0030242605A6802F0F00282605A6824
:1049B00002F4E062C2605B68DB0803F4E063036159
:1049C000034B1B6803F007030B60704700100240A5
:1049D0000020024070477047214A0368904210B59A
:1049E00005D0B0F1804F02D01E4CA0420CD14C68D3
:1049F00023F07003904243EA040310D0B0F1804FDB
:104A00000DD0184A90420AD0174A904207D002F5BA
:104A10008062904203D002F58062904203D1CA685E
:104A200023F4407313434A6923F080031343036064
:104A30008B68C3620B688362094B98420BD003F505
:104A4000A053984207D003F58063984203D003F542
:104A50008063984201D10B6903630123436110BD58
:104A6000002C0140000400400040014010B5044605
:104A7000A0B190F83D3003F0FF021BB980F83C2054
:104A8000FFF7A8FF022384F83D302068211DFFF7BF
:104A9000A3FF012384F83D30002010BD012010BD8C
:104AA00010B50446A0B190F83D3003F0FF021BB9E9
:104AB00080F83C20FFF78FFF022384F83D30206808
:104AC000211DFFF789FF012384F83D30002010BD30
:104AD000012010BD036A23F001030362036A70B56D
:104AE000446882690D6822F4803222F073022A43FE
:104AF0008D6823F002032B43174DA8420BD005F518
:104B0000A055A84207D005F58065A84203D005F559
:104B10008065A8421AD1CD6823F008032B430E4DBF
:104B2000A84223F004030BD005F5A055A84207D0F6
:104B300005F58065A84203D005F58065A84205D13A
:104B400024F440758E694C6934432C43446082617F
:104B50004A684263036270BD002C0140036A23F07F
:104B600010030362036A426870B584690D6824F01B
:104B7000807424F4E64444EA05248D6823F020037D
:104B800043EA0513104DA8420ED1CD6823F08003EF
:104B900043EA051323F040034D698E6922F4406215
:104BA000354342EA850209E0084DA842F4D0084D99
:104BB000A842F1D005F58065A842EDD042604A6870
:104BC00084618263036270BD002C0140004001409B
:104BD00000440140036A23F480730362036A42685D
:104BE00070B5C4690D6824F4803424F073042C4338
:104BF0008D6823F4007343EA0523114DA8420ED1BA
:104C0000CD6823F4006343EA052323F480634D69F0
:104C10008E6922F44052354342EA051209E0094DFB
:104C2000A842F4D0084DA842F1D005F58065A8420D
:104C3000EDD042604A68C461C263036270BD00BFC8
:104C4000002C01400040014000440140036A23F46D
:104C500080530362026A30B54468C3690D6823F06B
:104C6000807323F4E64343EA05238D6822F400525F
:104C700042EA05320C4DA8420BD005F5A055A842DA
:104C800007D005F58065A84203D005F58065A842E8
:104C900004D14D6924F4804444EA85144460C3611E
:104CA0004B680364026230BD002C0140036A10B5FA
:104CB00001248C4023EA04030362036A8A401A43F6
:104CC000026210BD10B5044601220068FFF7EEFF36
:104CD00023680C4A93420BD002F5A052934207D0AE
:104CE00002F58062934203D002F58062934203D1C1
:104CF0005A6C42F400425A641A6842F001021A6087
:104D0000002010BD002C0140FFF7DCBF7047000001
:104D1000074A08B5136843F010031360032000F03E
:104D20003FF90F20FDF790F8FFF7F0FF002008BDD6
:104D300000200240024A136801331360704700BF2D
:104D4000DC1B0020014B1868704700BFDC1B0020F3
:104D5000036A10B504248C4023EA04030362036A47
:104D60008A401A43026210BD036A23F4803303624F
:104D7000026A30B54468436D0D6823F4803323F034
:104D800070032B438D6822F4003242EA05420D4D38
:104D9000A8420BD005F5A055A84207D005F58065BF
:104DA000A84203D005F58065A84204D14D6924F4DA
:104DB000803444EA0524446043654B68836502629D
:104DC00030BD00BF002C0140036A23F4801303624E
:104DD000026A30B54468436D0D6823F0807323F494
:104DE000E04343EA05238D6822F4001242EA0552AB
:104DF0000C4DA8420BD005F5A055A84207D005F5EB
:104E00008065A84203D005F58065A84204D14D69AC
:104E100024F4802444EA8524446043654B68C365D8
:104E2000026230BD002C014010B504460422006827
:104E3000FFF78EFF23685A6C42F400425A641A68E6
:104E400042F001021A60002010BD38B590F83C30E5
:104E5000012B04460D464FF0020010D00123082A12
:104E600084F83C3084F83D0043D009D8FAB1042AD4
:104E70002ED00123002084F83D3084F83C0038BD5A
:104E8000102A47D0142A56D00C2AF2D12068FFF7F6
:104E9000DDFE23682969DA6942F40062DA61DA69C1
:104EA00022F48062DA61DA6942EA012230E02068A5
:104EB000FFF710FE236829699A6942F008029A6197
:104EC0009A6922F004029A619A690A439A61D0E7CA
:104ED0002068FFF743FE236829699A6942F400625B
:104EE0009A619A6922F480629A619A6942EA01227F
:104EF000ECE72068FFF76EFE23682969DA6942F063
:104F00000802DA61DA6922F00402DA61DA690A4336
:104F1000DA61AEE72068FFF727FF236809695A6D59
:104F200042F008025A655A6D22F004025A655A6D21
:104F30000A435A659DE72068FFF746FF2368096921
:104F40005A6D42F400625A655A6D22F480625A65C5
:104F50005A6D42EA0122ECE790F82120022A10B5AE
:104F600003D004228263012010BD0268C46B116863
:104F7000436B21F00E011160116821F001011160F5
:104F8000026C012101FA02F26260002480F8211013
:104F900080F8204013B19847204610BD184610BD38
:104FA000074AD36823F4E0631B041B0C43F0BF6380
:104FB000000243F4003300F4E0600343D360704721
:104FC00000ED00E04309012200F01F0002FA00F0AA
:104FD0002033044A42F82300BFF34F8FBFF36F8F93
:104FE000704700BF00E100E010B50446FBF74CFC41
:104FF00023682BB9E068FBF7D6FB012360602360D0
:10500000BDE81040FBF756BC38B50546FBF73CFC45
:105010002C6824B1E868FBF7C6FB6C68041BFBF73F
:1050200049FC204638BD38B50546FBF72DFC28461F
:10503000AC68FFF7E9FF0444FBF73CFC204638BDB1
:1050400008B5FFF7F0FF07EE900AB8EEE77ADFED5C
:10505000037AC7EE276A16EE900A08BD0024744949
:1050600010B50446FBF710FCE068FBF79CFB00233F
:105070006060A360BDE81040FBF71CBC002310B5C6
:105080000360436083600446FBF760FBE0602046FA
:10509000FFF7E6FF204610BD70B504460D461646E4
:1050A0000021982201F071FA324629462046FDF788
:1050B0004BFB20460449FDF7D3FA20460121FDF7BA
:1050C000F7FB204670BD00BFA0860100FDF710BCB5
:1050D00010B51446FDF71AFC201A18BF012010BDA8
:1050E00010B51446FDF736FC201A18BF012010BD7C
:1050F0000368184708B10B6803607047704788421F
:1051000038B504460D460AD0FBF763F93CB1EB68AD
:105110001BB15B68294620469847EB68E360204650
:1051200038BDC36810B504460BB19B68984720464C
:1051300010BD704783681A6843681A4214BF012083
:105140000020704710B5084B044640F8203BFDF79F
:105150004BF804F14000FBF73CF904F13000FBF799
:1051600038F9204610BD00BFD08E000810B50446A7
:10517000FFF7E8FF204600F00EFA204610BD0000C1
:105180002DE9F04305461F4B45F8043B044685B026
:105190000E4604F120071C220021284601F0F5F9F3
:1051A00010220021384601F0F0F90023E363E364A4
:1051B0006946DFF85890DFF85880CDF8009004F188
:1051C0003000CDF80C80FFF79AFF6846FBF701F935
:1051D000694604F14000CDF80090CDF80C80FFF74F
:1051E0008EFF6846FBF7F5F82346074A31463846F6
:1051F000FCF748FF28463146FBF792FA204605B0F7
:10520000BDE8F083D08E0008B35200083351000887
:10521000BC8E00087FB50E460446FBF735FBF568EB
:1052200004F1300020345DB13146FFF768FF012200
:1052300001212046FCF7CAFEFBF73CFB04B070BD21
:10524000054B00936946054B0393FFF758FF6846EB
:10525000FBF7BFF82A46EBE733510008BC8E000885
:105260007FB50E460446FBF70FFBF56804F14000DE
:1052700020345DB13146FFF742FF01220221204672
:10528000FCF7A4FEFBF716FB04B070BD054B0093C2
:105290006946054B0393FFF732FF6846FBF799F821
:1052A0002A46EBE733510008BC8E0008C3681B6830
:1052B0001847012908B502D0022904D008BD3030B2
:1052C000FFF7F4FF08BD4030FAE738B5044648B1AF
:1052D0005830A04206D0A0F12C051438FFF721FF6A
:1052E0002846F6E7204638BD70B50E4C204600250E
:1052F00028263246294640F8045B01F046F932463A
:10530000294604F13000E56201F03FF9A565204629
:10531000E565054A84F860500449BDE8704000F036
:1053200029B900BFBC11002088010020CB52000821
:1053300001F090B901F0ECB901F03EB901F02DB9DE
:1053400070B50546FDF7CAF84FF47A7495FBF4F48E
:10535000002C064602DDFBF791FA28B9FDF7BEF8EE
:10536000801BA842FAD370BD204600F01FF9F5E774
:105370004FF47A735843FFF7E3BF000008B5084BBA
:105380001B685BB9022107480F22FDF7D7FD4FF4D8
:1053900016510448BDE80840FDF776BE08BD00BFC1
:1053A000880F0020B81B0020022810B5044601DC3D
:1053B000002010BD00F0AAFE09230360033C094B46
:1053C00053F82400002243F8242040B103681B69ED
:1053D0009847041EECDA00F099FE644204604FF036
:1053E000FF3010BD20120020F8B505460E461446C9
:1053F00000F08CFE0923022D03600FDC124B1B68AA
:105400000BB9FFF7BBFF35463719104EBD4215D01B
:1054100015F8011B3046FDF769FEF7E7033D0C4B1D
:1054200053F8250060B103682246DB68314698478F
:10543000041E03DA00F06AFE634203602046F8BDF2
:105440004FF0FF34FAE700BF880F0020B81B0020A0
:105450002012002070B504460D46164600F056FE98
:105460000923022C03600BDC0F4B1B680BB9FFF701
:1054700085FF0E48FDF718FE01242870204670BDF8
:10548000033C0B4B53F8240058B1036832469B6829
:1054900029469847041EF1DA00F038FE63420360A3
:1054A000ECE74FF0FF34E9E7880F0020B81B00203D
:1054B0002012002070B504460D46164600F026FE68
:1054C0000923022C03600BDD033C084B53F8240036
:1054D00040B1036832462946DB69BDE87040184791
:1054E000002070BD4FF0FF3070BD00BF20120020C3
:1054F00008B5FDF711FEFBF763FA08BD704708B564
:10550000FFF7FCFFBDE80840FBF718B80C4A13682A
:1055100010B51844EFF30881884205D3094B0C22DB
:105520001A604FF0FF3010BD07490C6824B10749DD
:10553000096821448842F1D21060184610BD00BFAE
:10554000A8010020E01B00202013002024130020CD
:10555000074C08B523680546986800F08FFE23685D
:10556000D86800F08BFE0DB1FBF7B8F9FEE700BF7D
:10557000AC0100200120704708B5FFF7E9FF08B52E
:10558000FBF72CFA08BD08B5FBF730FA08BD08B1E7
:1055900000F07CBF7047FFF7FABF0000024B1B68AA
:1055A00003B11847704700BF28130020FBF7ECBE7B
:1055B00080F309887047EFF309807047684680F3ED
:1055C00009885A480078C00714BF0220032080F3DE
:1055D00014887047DFF858C1EFF305831B0618BF26
:1055E0006047EFF31483DB0708BF604700DF7047B5
:1055F000DFF840C1EFF305831B0618BF6047EFF3E8
:105600001483DB0708BF604700DF7047EFF30980B2
:10561000816911F8021CE1BB90E80F1010B5E0475A
:10562000BDE81040EFF3098C8CE80700424B93E88B
:105630000600914208BF704741B91EF0100F16D105
:105640003E49086820F00100086010E01EF0100FCD
:1056500006BF2CED108A0120002081F825002CE9DE
:10566000F00FC1F82CC00CB4FBF7A4FB0CBC1A6003
:10567000D2F82CC0BCE8F00F92F8250000280EBF2D
:105680006FF0020E6FF0120EBCEC108A8CF30988DA
:10569000704710B52A4A1268914209D8294C54F82B
:1056A000214090E80F10A047EFF3098C8CE80F0021
:1056B00010BD10B5FBF70AFBBDE810401E4B93E888
:1056C0000600914208BF7047EFF3098C1EF0100FDF
:1056D00006BF2CED108A0120002081F825002CE95E
:1056E000F00FC1F82CC00CB4FBF764FB0CBC1A60C3
:1056F000D2F82CC0BCE8F00F92F8250000280EBFAD
:105700006FF0020E6FF0120EBCEC108A8CF3098859
:10571000704710B5FBF730FBFFF7CEBF10B5FBF7B6
:1057200029FBFBF729FBFFF7C7BF0000B68A00087B
:10573000230E00083D0E00082C1B002034EF00E073
:1057400000000000FCFFFFFFDFF820D0002103E095
:10575000074B5B58435004310648074B42189A42A6
:10576000F6D3FDF743FDFAF7A1FFFEE70030002076
:10577000E49100088801002090030020FEE700006B
:1057800081F0004102E000BF83F0004330B54FEAF2
:1057900041044FEA430594EA050F08BF90EA020F5F
:1057A0001FBF54EA000C55EA020C7FEA645C7FEAF2
:1057B000655C00F0E2804FEA5454D4EB5555B8BF15
:1057C0006D420CDD2C4480EA020281EA030382EA86
:1057D000000083EA010180EA020281EA0303362D18
:1057E00088BF30BD11F0004F4FEA01314FF4801CEB
:1057F0004CEA113102D0404261EB410113F0004FFD
:105800004FEA03334CEA133302D0524263EB4303B3
:1058100094EA050F00F0A780A4F10104D5F1200E51
:105820000DDB02FA0EFC22FA05F2801841F10001AC
:1058300003FA0EF2801843FA05F359410EE0A5F180
:1058400020050EF1200E012A03FA0EFC28BF4CF0B1
:10585000020C43FA05F3C01851EBE37101F0004567
:1058600007D54FF0000EDCF1000C7EEB00006EEB74
:105870000101B1F5801F1BD3B1F5001F0CD34908FE
:105880005FEA30004FEA3C0C04F101044FEA445255
:1058900012F5800F80F09A80BCF1004F08BF5FEADC
:1058A000500C50F1000041EB045141EA050130BDBC
:1058B0005FEA4C0C404141EB010111F4801FA4F15F
:1058C0000104E9D191F0000F04BF01460020B1FAB4
:1058D00081F308BF2033A3F10B03B3F120020CDAEC
:1058E0000C3208DD02F1140CC2F10C0201FA0CF0CA
:1058F00021FA02F10CE002F11402D8BFC2F1200C2F
:1059000001FA02F120FA0CFCDCBF41EA0C019040E4
:10591000E41AA2BF01EB0451294330BD6FEA04042D
:105920001F3C1CDA0C340EDC04F11404C4F1200218
:1059300020FA04F001FA02F340EA030021FA04F32A
:1059400045EA030130BDC4F10C04C4F1200220FA81
:1059500002F001FA04F340EA0300294630BD21FABF
:1059600004F0294630BD94F0000F83F4801306BF85
:1059700081F480110134013D4EE77FEA645C18BF79
:105980007FEA655C29D094EA050F08BF90EA020F10
:1059900005D054EA000C04BF1946104630BD91EA08
:1059A000030F1EBF0021002030BD5FEA545C05D10B
:1059B0004000494128BF41F0004130BD14F580044A
:1059C0003CBF01F5801130BD01F0004545F0FE41BE
:1059D00041F470014FF0000030BD7FEA645C1ABFF3
:1059E000194610467FEA655C1CBF0B46024650EA2A
:1059F000013406BF52EA033591EA030F41F4002156
:105A000030BD00BF90F0000F04BF0021704730B5DB
:105A10004FF4806404F132044FF000054FF00001B0
:105A200050E700BF90F0000F04BF0021704730B571
:105A30004FF4806404F1320410F0004548BF404246
:105A40004FF000013EE700BF42004FEAE2014FEA9B
:105A500031014FEA02701FBF12F07F4393F07F4F76
:105A600081F06051704792F0000F14BF93F07F4FA8
:105A7000704730B54FF4607401F0004521F00041EB
:105A800020E700BF50EA010208BF704730B54FF071
:105A900000050AE050EA010208BF704730B511F076
:105AA000004502D5404261EB41014FF4806404F1AE
:105AB00032045FEA915C3FF4DCAE4FF003025FEA30
:105AC000DC0C18BF03325FEADC0C18BF033202EBB8
:105AD000DC02C2F1200300FA03FC20FA02F001FA12
